:100000000C943B100C9458100C9458100C945810ED
:100010000C9458100C9458100C9458100C945810C0
:100020000C9458100C9458100C9458100C945810B0
:100030000C9458100C94E7110C9458100C94581010
:100040000C94CF110C9458100C9458100C94581018
:100050000C9458100C9458100C9458100C94581080
:100060000C9458100C9458100C9458100C94581070
:100070000C9458100C9458104668745235507039CE
:1000800038764566476F6E6379476233675A3750F3
:100090004B38483456692B4476594149704E446F69
:1000A0005A44705663716C4D46494C36744E3776DF
:1000B0004C306E442B48342F307A33355A57774EB4
:1000C00048394730307530526E5A594E3853425580
:1000D00041495342616577336D77466E5070637363
:1000E000522F656E4439757868454968544B5A54A7
:1000F0006457597A78623766667A712B6B724D460F
:10010000456C434C5646436F474658562B317678DC
:100110006147314A7458772B553678314B7A4E46C1
:10012000736F446A594D726C34696933797038540D
:1001300047516C377243775752365A7739647A751C
:100140004F35687670716D49694A327853594C421F
:1001500063474850646B4638636D41546D4C62622E
:100160002F6673437A42774F5336427A4B4F373379
:10017000617A433741567775735A656E7351566C81
:1001800030594F37505766425850553170306133AF
:10019000345650346D2F7742326D36394257392BF1
:1001A0004F3259737A6A49396D3972497569517399
:1001B000393553354B4A524B50413748437074558B
:1001C000787A734C6465533964674D4A6631576E6B
:1001D0003846543070416A6674535A3773505957D1
:1001E0004172566B656F39384C682B7A794F495597
:1001F0006E772B7838484A574236386672436746DE
:1002000065595263534D5A3441746B3439664231E7
:10021000312F756A6E57697A546672394A38453596
:10022000486362704E49684C76537142697A39531B
:10023000356B2F6C48644A70546A5361612F723970
:10024000424A4755624B554F6F5A3854632F5A37BD
:100250005278504E3361454D4948776464436E4946
:10026000516A4B5A74736A6B31506D676469695592
:100270005371574F522F386A79545745467063432C
:10028000434B74592B523678454D486B756F575216
:100290006766667350376D59326D694F4463364BEC
:1002A000306B364F6A48444B6461656233654B7905
:1002B00079416459476C486E4D795950782B39799A
:1002C0007063383268366C694C6530556C743949E6
:1002D000754E6D766A3246514C50334B34665258E7
:1002E000382B775033343245786B7A73386D5668D3
:1002F000614C6C623961545337716A556262574779
:1003000052483369396953537A7268637156663358
:100310006F492B6246745271736F5A442B714C5261
:10032000733970743758566D4E45562B4F454E39BC
:100330003566456B46596B594377594432724A5A70
:10034000393369385761384C587644342B2F352F60
:10035000354B304B416C347654506D67312B6830DF
:100360005052335362756830505233533769675572
:100370006A63552B6D4A4F566B6373355279415101
:100380006A3852694E6B5369566E5336576E4B3509
:10039000427743415279435154365253726F6A4502
:1003A0003558466B4E526E516237546136717056F5
:1003B000636275426D30366E694A755245776F4695
:1003C00032653872547668384F522F544D6B596AE3
:1003D0007972706439586C674E356A4D34664D6C6D
:1003E0007957667672416C594B35624C766F444151
:1003F0005A7A43597932597A776A36666C4A555730
:10040000444E6B7748347A475A4731714D73626A6C
:10041000716F72464F523954636D597A5176352F48
:100420005A473371386961546B68594C3372445977
:1004300036336137426C777545466433344B384CFC
:1004400033724459362F6237706F7A473543314BD8
:100450006F67344832444E4665622B44476C49709E
:100460007A32537933724459362F5A375A6D79326A
:10047000334446454A5A45556A63572B324C4D46DC
:1004800057532F4C7667434152364451372F5436D9
:100490002B694B526B38706C3648666E726776709B
:1004A0004E356A3834664D565371632F5748464867
:1004B0004E526C7A7231514A456C61496A70687665
:1004C0006F5650574A784E56634476794F78343891
:1004D000334448333558485864546C7A4A42433759
:1004E00078324B7867384C6871396272726F684540
:1004F000705648302F663069466C5171456C617298
:100500006A68694D51534E4E66623243786A776528
:10051000694A735255796F565553764A76317975D3
:10052000304464482B4B4F4E6E633236326A4B5A1E
:100530006C30676B6C636B346D38356E364B754A57
:100540006E30796D3144564770413361363670569E
:1005500039337636713962774C736A2F396E6E375C
:10056000382F6A382B58396A6175703159624F4695
:100570006D63383778727A65364B754A48347847F8
:10058000706731614C306F505353666C7649473217
:100590005453666C503048612B662B464374704C44
:1005A000362F5741315458325A4731617367597A5F
:1005B000576E4B4A6830415146496830495A455553
:1005C000445156657141765A4E78674D67634D398F
:1005D0005253484D34664D6C796565766A426C516C
:1005E00072395471636D597A516E342F784C32439D
:1005F00052767A2B654F4D745461574F51502B6A88
:10060000696871396E63324B57764A4A352F4249D1
:100610004F35352F2B4B4738776D507472645732F6
:100620005848486B39666B6746776745424148636F
:1006300037336455364B73365879796C54506B5454
:100640006C30695856616B37426F4C794F52347336
:100650005848484864626D6A782B44542F33796453
:1006600057764F476A45642F3543334B596D3633C0
:10067000674A2B546B68614C6E684349772B4A7804
:1006800034334B35683842674E35684D6F564E31BE
:1006900034664D6C535364502F43464D4A5A4D5661
:1006A0003075734D7A3253585876446466623536E5
:1006B000645758756347647662576E6F3966704A3F
:1006C0005A54467770644541486F30756A70704E71
:1006D0002F58336939695353546E6738475139621B
:1006E00039695153446C67736B63733552364451A7
:1006F000623752614B6B716C6955642F5A47317187
:100700007367594432724C5A4E35684D49525056AF
:100710004D52745238336F39785748736354764268
:100720004F353550664748733866756843346244C0
:100730004F734A68617A6162466C51716B70624CAA
:1007400050734467647A696353536450664F4573CA
:100750006B6375354277414168304367312B6A30AE
:10076000665433433543775769526C6E7231536424
:1007700055765A4D596D7942337A46457064473003
:100780005853314B6F6F35482B4B4F4E48593261A0
:10079000536E713942514663715666336F412F6211
:1007A000746F52434A737A6D394B554F414E387AC4
:1007B000777237664E45582B654750744C525657E2
:1007C0004C456E342B33342F784433435A7578328A
:1007D000504D45386D553937356979577A446E41F2
:1007E0005A374459613762624E73546939715453B0
:1007F000626D69305853334B34713558384B6550FE
:10080000484E47305853334B347936586C686458E7
:10081000384B63505850456B46516C594B78594C86
:10082000337242594B78594C5876443465373566A3
:10083000644F57753072634858664D427965634C12
:100840007A446E6B5A7A433853365A33636D615823
:10085000424E354C62576E6F382F72394A5A47559F
:100860005453564F49452F374A73786D7441586534
:10087000364B734A333277324846483066543343F6
:100880003571785772496B5943345A4465754A78C3
:10089000597A4B5A46346A453566476B31656D6FF8
:1008A000557971566B637335783241776E387A6D4E
:1008B0003943584F594F2B726A68674D4151506404
:1008C00074566C775078774F67423954636D597A14
:1008D000516E342F52483369646D5179486C436FBF
:1008E00055797156456F755A6B386A6B39666B6707
:1008F00046776745686345384759386256765436B7
:100900002B714C5273397274726455326E4A45556C
:10091000435957657937736C322B355434432F76EE
:100920004F4D42454E68674D41594D6431656B6F7F
:100930006B30716C6955662F704930616970724E09
:10094000505A30536A706A4D59544E462B66386A75
:100950007972706464626B41683842677439687395
:10096000735676786F394C704C78534B7772376684
:100970004E4D552B6D4A4D565553744A6637786522
:100980007141745A64376A636154644865475074AE
:10099000726455326E4A45554459576553507368D1
:1009A000537961546B68594C336A43597932617A8F
:1009B000677035502F36474D52614F4E4851336165
:1009C000366971566B6375354277434178324177AA
:1009D0006E30796D5648586D394B574F5150386AC3
:1009E0007972706464546C414A78414967384A6846
:1009F00036335937786A77654346767849354A4AB7
:100A0000663778654B4D73355236425172395271A3
:100A10004D6B616A43747274725656325045483851
:100A200065542F444F6B4968537959545576623752
:100A30004A6B776D6C425857624F6D6F55367256E0
:100A40004D5A75526B38706C3666636E79447442D9
:100A5000657A3666464E55326E424855625458475E
:100A60003543314B4973356E61477670723153713E
:100A7000557662374A737A6D6447587538436650C5
:100A8000764146634B5A65586B4266584D4D652F0B
:100A900042463379667542775068774F68703837C9
:100AA0003072627A74675171426C7947554864506C
:100AB000614F7542436F54715A4F7A322F43484DFC
:100AC00034584E6C61546448654F4F7444595765AF
:100AD000534876684B35624C7667414168304367CE
:100AE000312B683076643079486C416F6B306F6CB5
:100AF000536163505850476B31576E6F38336F39BD
:100B00005261454D41514E6464626B4142774141AF
:100B100068384267743968734D527652733970740D
:100B20006262554768423353626D6930335733719F
:100B300063755A7A347137587341666674495765DC
:100B40007944744265373766746758653753744A19
:100B5000667A79655348766871396272726F6A4550
:100B60003566456B6C636B344734354865474E7466
:100B70006262554768423353627568305052315350
:100B8000726769455253464D6F644F3141514E640F
:100B900039666D673175683075313361666D4159FD
:100BA0006E30794F5633564F734156657149755AB9
:100BB0006C30676B6C556C347539357662476E6F87
:100BC0006337706464626B4142774341782B4477AA
:100BD0002F2F7A2B2B4B4F4E6E5533362B694952A4
:100BE000302B72316F5650316F564E3159624D462F
:100BF0005753394C666D417748347A475A4F3071B4
:100C00006B70624C506B4367567969557A655775BE
:100C10005550636E79447442657A3666464658325A
:100C20002F4B474D77575074726457325850476B6B
:100C300031576E6F38336F395253464D49524E56C5
:100C4000635474422B33342F52503269552F54362B
:100C500065474B4A67304B5A43675937334C4A5ABA
:100C6000392F68384F522F54736F5A442B694B52A7
:100C700045776F4658532F4C765941497039416733
:100C80004D357146505A325354766A382B58396A6A
:100C90006175703159544E4666542F444F554B3050
:100CA000693059327972724974566C6C5035786279
:100CB0006F34384F306A51616970704E2F58316906
:100CC00074675343787278654B4D7535683041676A
:100CD000463468454A52465572645532484E45304E
:100CE000485131614B73726C4B5A65586B42645872
:100CF000384366507649456343596366314C5747DC
:100D000052483369396953537A5469635461644B67
:100D1000334C48425253454A6F644E7777654E6F65
:100D20005469554C70493862567654362B717A5254
:100D30004D78534E6E554E364F384A68625459724C
:100D400031725471367170563958746836485A7514
:100D5000527677724F554D6F597A464570644530DB
:100D60006E554E364F737868617A67625676723682
:100D7000656D77785179795245775146326545727C
:100D80005476623865544644656D497851794952C4
:100D900055796F563057747037335236476C4A70F6
:100DA0007A2B5179506B426746346745705648300C
:100DB0002F583369397152534C6B696B56536E49D6
:100DC00034334B35423442417031416F6B306F6C7C
:100DD000536165506E4A48557A6558755650666E2F
:100DE0004339757841344A42657A3466314458470C
:100DF0003543334B59753733494D2B37427478752A
:100E0000734963663144564770493261536E6F3996
:100E10005261474D5153504E76643079486C416F62
:100E200045776F465761384C586E433457363558BE
:100E3000384364502F4B474D5153504E505233530B
:100E4000376967556A55582B2B4B4D4E5836304BEA
:100E5000423937504C4D6D593232345851502B4431
:100E60004374724E4C685832364B6D745179493028
:100E700055796F773065754D6A30514845745450D7
:100E800038615A5463756A7A496B416E53485668A3
:100E9000363359375258792B33444F414F523857D4
:100EA0003869625745745975626D6A783265337670
:100EB00030545962566E6F366D707A4A76394A757B
:100EC0004D456E2F6F4150613661516438665670E2
:100ED00053366762636D6A37676842483254384DEB
:100EE00070312F3066624F435276782B4F45503920
:100EF0004A5A45556A55582B2B4B4F4E6E63323626
:100F0000576E4B3542774141423444415A7A4159F8
:100F10004334624475674B42477736486E68505693
:100F20004D4A7332316D715341774E6464626B4147
:100F300068304367563668554C5A57577A446E4165
:100F400035334334577934585548666E4B4D742BBE
:100F500052364358372F51394F6B4C6D436F6145B3
:100F600076494C427531347654506B674634684547
:100F70004A5A45556A55562B4F4D4F396863473885
:100F80005761384C33724259713161726A68674DEA
:100F900041494D6455796B4D6F394B744C35534F06
:100FA0005A4F367A4A7338375248774F6D4A4D6CEC
:100FB0003065755A443454793569796D54506B678E
:100FC00046776745425947637965657644566E773B
:100FD000656277614B4D74395236435561545265A1
:100FE00043316F747A575875634F637654486E6710
:100FF000647A67636963632F525030696B78534B2F
:10100000515034345A4F3374556E62386870794A8F
:10101000594F3973546E67554751397A6475546125
:10102000667544592F4877576E4A4F564551745A42
:101030003933693832652B726A68694D77574E7457
:10104000625458475A47317173675944576E4B354C
:1010500042774341782B44772F2F7A2B2B4B4D4EE1
:1010600033653271306A5962566E513647744A7030
:10107000372F523676344A422B583650424E304340
:101080006E70423449354A35666A7775446C7478B7
:10109000597A4B5A463468454A5A4555445955651C
:1010A0004346747859374C5A4E35684D6F644D310C
:1010B00051614F4E6E633036476C4B7044775343EB
:1010C00052767A2B2B434E4E6654334335717A5702
:1010D00062476C6F4D78714E485930616968714E46
:1010E0006E55333665754A78597A4B5A6C386A6B47
:1010F00039666B676C30696B31576E6F3833713995
:10110000425146634B4266584E6B63395A4F336FB8
:10111000306A625A454E536F38795954556E61376B
:10112000427478754D45662F4A4533362B714A52C5
:10113000637A6F6456536E4934334935523644519D
:10114000623754616175703159544E462B58396A73
:101150003669714E6B5574685A3742414B78595411
:1011600033624441627A5962317252614B6B716CE5
:101170006A4D632F786A336C594777524864473019
:101180005853314B6F6F37484F4D4F39685546387C
:10119000754E2B7A424E347637436B496F314C7023
:1011A0006A305269466C54713172596239535153E5
:1011B0006A68694D7757507472645532484E4530AD
:1011C00048593261537672574A5A47557A5758757B
:1011D000634F65766A4A6D515479515344746A730A
:1011E00038587668713161726A68694D51614F4E45
:1011F00048593261537670393558486B39586C67A5
:101200004E78694D51614F4E6E633236326A495A9B
:1012100056366855725658322F4B454D41594F64DA
:101220006C556E34657A36666C4A57577A446E410F
:101230005A7A41596938626A716F724675562F7AC7
:101240006F6F35482B4B4D4E335731714D73626A7A
:101250004B73726C4B5A65586C42645838796650BF
:101260007649476379656B767A4466415A7A36598E
:1012700053365A54386961546B705A4C2F7144512B
:10128000372F54362B717A52733952746262754714
:1012900052484E6974676F436852494F424E487ACC
:1012A000416C357654506C676C38696B39506C679B
:1012B00045596A455A624545686345384759386219
:1012C000566E51366E78494A3365796D2F434563C2
:1012D000495A4E46306576356A455479556E5161A6
:1012E0006D704A70667A772B6942747838767264CA
:1012F0004935455544595565694A755245347246D4
:101300007556397A59753733494D383778727A6559
:10131000614F737054795353546E69385753394C35
:10132000666D41774834784770493261532F703980
:10133000342F466A6C556B2F4F7036494F734738C0
:1013400032652F73446C6872455173656437696206
:10135000627A63412B53504E505A3253546E673861
:1013600047592B62466452714E6B5A7053767133F3
:101370004A5A48655461564567682B5A74775944F0
:10138000326A495A56366A55625458475A4F327132
:1013900030725A623971545362756A302F5833690A
:1013A0003971545362756830754633792F4B446FE9
:1013B0003733534358334B42425944415A374259C9
:1013C000717462724B4D67764E686D62617A5361DB
:1013D0007972726473566E77664C78764C6B764988
:1013E0004A6841496730496853615A54642B6270B6
:1013F000496B3639694A734C55796F505579745435
:101400002B58792B586E504E4B52662F4D456658CF
:101410007041337936796F395636734A332B7932C6
:10142000664F48735561764A6E30786D464658323D
:101430002F4B454D68384F394249475079656538DB
:1014400069686C444C68514B677035502F4B474D61
:10145000784F4F746A3856304864502F673050398F
:1014600070564630505A30536A706A4D34664D6C2F
:101470007A57667672776D34372F61624A557A757E
:10148000564855754D4555324F3050397056483095
:10149000655431434A637A46394B57745250384148
:1014A00054486F3977574863636273785736376E9D
:1014B0007349637631375532414E3079486C436F0A
:1014C00055536F565643736666547A497A6273422F
:1014D0003265353335532F74766F446D5A37422B4E
:1014E0004B7859743344412B6A6B596A796A716439
:1014F0006C556C347539377672596D597A65624717
:10150000493034537A6A764275393576374B6B49B0
:1015100067304B68433468442B717852382F6F6CB6
:101520005A5439457056393050524E534C73626B91
:1015300064626541527936517A327179336A43591E
:1015400053365A546432597A5148365042463343DE
:10155000666D434133327747476447455836324BCF
:10156000516E342F784C32435276782B764150644A
:101570004E686D44617A524A695A71654F523042E1
:1015800072596A455A5446454A5248553758586D1B
:1015900064475675734164663979564F7041397A9C
:1015A0003971543662756A632F58334B395351364B
:1015B0006970684D6F5650316F564E3159544E46D2
:1015C000657A3944662B4B526F564C4A697352699F
:1015D000746F54435A757A322F43484D34664F6CBA
:1015E0006955662F70413361367172564D5A7332A8
:1015F00030326F5351534E716662306C6870784F61
:10160000494539375A7578327641466372316433C9
:1016100034613837586E43495736376E4D456450FC
:1016200034713036413937364C4D6D74585334432C
:10163000306263483244504676462F7A49453769CE
:101640004456753049524C4E476F77434A73323691
:10165000576E49357732347748414A4468424D588D
:101660004C6B6A68316564744577524132654875E0
:1016700044746170636258456D45446944465678C8
:10168000342F78355A7A415943775944576E4B3540
:1016900042774141686342674D7068666F644D6D83
:1016A000772B4F2B4349576579727342336D356BF6
:1016B000776A2B5176774942577934585566636E6D
:1016C000546E76524B786137487442594D357239B1
:1016D000504A3069434E6873734674785A544C4A82
:1016E0006C73673073396B77483478474A453234C6
:1016F0002B714A3238336F615261457241594D3610
:1017000056536C344978493533327932334C454538
:10171000425148633666656E446C76786F6C492B2F
:1017200054365446364B684472465832664F4773B7
:10173000314F73707A65526C506B4333556967440F
:101740006A38574F57484E56615466334F45504E8E
:10175000494A456B447758653643744A66377A651B
:101760006147767072465171467461387259695496
:101770003466456B46516E59617A596256665436E5
:101780002F714952637A706431756E6F312B7133EA
:10179000495A50586B7376376738446739586738F9
:1017A0004849394C5650517150384A32617A594D36
:1017B0005648517448394A4F627A513969426F71BB
:1017C0005736324B784436466C4A554D6A526E4B0A
:1017D0003658513647394C704B5A51654930357A35
:1017E0007A7275426D30346E79447442653737666B
:1017F0004E45582B65474F70725657792F434545D4
:10180000495A4E31312B73705469544B7A72674583
:101810004C35665045646677674A2F554574597351
:101820006275677A505A33567A6A6A6253616449BC
:101830005850466A45416D66615459375676526133
:1018400075674B684777366E6E52503174397378CE
:10185000774F4C466F3149645436546D626D674121
:101860006D63304F6D52494A332B783250384738C8
:1018700058612F50485642736C306F6C53716550ED
:101880006D424551726C57792B43475934764E78E7
:101890005461666F6E4A487A5471567042462B36D0
:1018A000496B3575794C7449573634656347656DB6
:1018B00072496E5253796261457461694C4568742E
:1018C0006B456E342B2F352F354B304B41313476F1
:1018D00079726C6B686B4445305768546E4D316457
:1018E000484E4B35726C543631445962566E5271C3
:1018F000477449356237534B616D726C41514F6685
:1019000074566D792F33772B6D424E566354744263
:101910002F66352F35533250354337536B5A644158
:10192000566E6377615774703666543665324C680C
:1019300041774A525861364873596566464E55326A
:101940006D52465572315579764948597A4F6472CD
:101950007A6A6E415A7A41596A385A6A6157707880
:1019600078574D70376E566D7349576553337459B8
:10197000617A61696C68537A7772356D3843583390
:101980005A6D2F724B6B686A466F6C666A385A6A7A
:10199000616D6F315153504E5068335361756751CB
:1019A000766C3057756743417847417747347942C1
:1019B0005A3230744E6B616A437470743766576D77
:1019C000314C554742313379657543332B337A3582
:1019D000586E506C4C5A656E6B4A636E3044663379
:1019E00075494D7430476C594E526F4E587132667E
:1019F000516E3471784431584A6B777A6B6856442B
:101A000072596B5944515944572F4C4F4A784149A8
:101A100041344C42505A37505063483557532B4F3E
:101A2000766F43463533423947773743474E5077D1
:101A3000676350346873483558533842656D44368F
:101A4000584B7A57374B6B4967384A68376E593766
:101A5000524877766D424E45393376774C5A5A4C18
:101A60002F4342476A385330384352456A356A4DEE
:101A70003458506C714666414A6B3937356979572D
:101A80007A726B41677343336444684C44346366D1
:101A9000306255384231504965753577504A4C4F60
:101AA000354346752F69433179326F584856346F44
:101AB00046675346477747524D45726F304C7261C7
:101AC000614F54556F5631555A37306B3247487213
:101AD0004C6B616B3165656F557172564E3558525E
:101AE00045517246484947626C4A704B4A304245FC
:101AF000793758696E30436E694A55525579715637
:101B00006B5576357039446F64727064647A6E58C0
:101B10005A374250725659387A7A6763694563304A
:101B2000596D337138716254736F624475674942FD
:101B300057613558396165346E35456A6955582B9A
:101B4000652B4F74695557652F434D742F76326955
:101B50003072546136616F41386674307A75616DE8
:101B60006F41344857484E6C616265486D424E562D
:101B7000386675424377596A576E495A52614477BD
:101B80006172545061757267495A4F414559754D9C
:101B90006B386A7864726D415171445137665241B5
:101BA00050454B6243676144476C49705436525309
:101BB0004C6B696B31576D39636A72496B306C34A9
:101BC0004F353750766F4563444966566C4A5863C3
:101BD00054336B714D78674D675550396F564630A9
:101BE000766C306E507341314D70675A6F314E31A3
:101BF0003533506C7146636735692F4C5030434123
:101C0000563668304C5A577A7A4C6B6C4277366C41
:101C100052614431617254713669536C6B63554A39
:101C200052794367792B54432F534351796D51793E
:101C30006E4A4149706479704C70704B6F6F4248C6
:101C40002B4B324E48594D614339516F61377654B1
:101C5000527631336B42514B684A344B2F43454ADD
:101C6000495A50516B5557384A35434E342F4938ED
:101C70005A7A426469305A6D7A7A705931326E6F8D
:101C80006337706464626B41684D426773316733D8
:101C90006B5574695A3742444B5A5A5165324177F1
:101CA0006E30496D6C4A575754486C674E35684DD5
:101CB00049525056735674783433493578324377E5
:101CC000333279325848466B4E5A6D517A2B5479DB
:101CD0002F714451623754613671705638587468A8
:101CE000363359375133792B57765077696B637197
:101CF000344B324B777235663943584F344B2B4C4B
:101D00004874446F637A716446596B596938626AE2
:101D1000716F72464F522F544E45616A69787174E3
:101D20006E633261326A4B356C306945302B6D49D8
:101D300031576F3177324D36376E7578634F743760
:101D4000454E6E6967423847386962474574592B7A
:101D5000626D686848513361367172564D527652E1
:101D6000746C6F747A2B5556454E654D674A386FC3
:101D7000566E674178624C65614F557054365453C6
:101D8000626D69305861304B676834505848486B11
:101D900064626D41523642514B68514B414E355051
:101DA000624F6B494577716C6E552F6270597A4757
:101DB000354B304B4174357637436C4949354A4A87
:101DC0002F33792B324C4F466D552F374A737A6D2E
:101DD000644F57753172634832544E2F66623835FE
:101DE0003254495A3057673048673236624771314A
:101DF00068384E317865466B46777352396E676343
:101E000047512F374E3053435548516147744C4A20
:101E10004C7851714156365069706B516973536FEC
:101E200064755134766F434B343335796D45436E69
:101E3000434676784978494A5753795754666C6CCB
:101E4000463467424A4A46526938552B4746503114
:101E5000495250564D5276524D786F4E335733712A
:101E60003869595455766A374A737A6D644F557597
:101E7000454E6533674A3854306A6162467454711E
:101E800063755A7A597537334A732B374239784D0F
:101E90004D4566647041333437365233382F5568B8
:101EA0005379615445746A72726F68457056463052
:101EB00050524E537267674568554638756C487A7C
:101EC000706743636D42504F4D52584B4E685357A5
:101ED0006E304D7975674C4A477744506D42504F8C
:101EE0004D52764B4D525157574B5059786A366682
:101EF0004639574D5848466B744E6B774759796C45
:101F000034713170673535502F43464D6F5650311F
:101F100049524E56634C75426E553732434673678D
:101F200034334C6F42414452513642514C35544B3C
:101F300034713558634F657644466C7776317775E2
:101F4000454E653341462F7A6F6736486D424E568F
:101F500038587468362F5A3735714A5772416E595E
:101F6000363359375276782B75414E6439666B6734
:101F700046346845706447305861304B6835355099
:101F80002B6146766855503970564630505A30535A
:101F9000695A6A4D5A724D46336D2F724B63686BA6
:101FA0004D706D51534B545361576930326D3171DF
:101FB0007459624450634C684C4A5A4C2B534151FB
:101FC000694D526973515143675A784F70342B628F
:101FD000456454716465627A4A55366E4431767848
:101FE0004A4A4C4A754E7A75642B6376797A6E410B
:101FF00034484334584B37584E38652F6735305383
:10200000435667736C737335774F44772B50782B37
:10201000767750644D686E51614C546137536F56FA
:102020005669764A754679755633646E622B7570BB
:10203000434954433453795779376B416745436774
:10204000304F6A306572304341647A756432647629
:1020500061326E6F39507239497047555369584F24
:102060005A2B387279626A636272654848314E3120
:102070005A6A4E46000011241FBECFEFCDBFDFE3EA
:10208000DEBF18E3A0E0B8E3E8E1FBE202C00590A0
:102090000D92AC34B107D9F728E3ACE4B8E301C042
:1020A0001D92AF36B207E1F70E9470120C946A15C8
:1020B0000C9400008091343890914B3890933438D0
:1020C000892B8927809363380895CF93E0915E38F8
:1020D00080915C3890E08093353890933638C09189
:1020E0005D38C0935B388E2F90E044E096958795DD
:1020F0004A95E1F70097A1F581E080932204609171
:1021000035387091363890E080E00E9460142AE9FA
:1021100039E941E551E40E94C6140E9431146093EC
:102120003538709336384091593850915A38409329
:10213000360A5093370A2C2F30E0DA010E945B15E3
:10214000672F782F892F992760933A0A70933B0A5B
:10215000569547954093380A5093390ACF91089580
:1021600021E020932104EF7024E0E29FF00111248C
:10217000EC5FF74C4081518162817381019704C00B
:1021800076956795579547958A95D2F74093593834
:1021900050935A38B4CFCF92DF92EF92FF920F93C1
:1021A0001F93CF93DF9360915F3870916038AC01DB
:1021B000440F551F480F591F13E0440F551F1A9520
:1021C000E1F79B01220F331F260F371F420F531FCA
:1021D00070E060E04093553850935638609357381C
:1021E0007093583825E0880F991F2A95E1F780935E
:1021F00053389093543860915F3870916038809173
:10220000533890915438660F771F660F771F680F09
:10221000791F68587F4F44E050E08FE498E30E94B4
:102220002814EFE4F8E39191A8EDBAEA80E02D914B
:10223000921709F484C08F5F8034C9F7DF011197CA
:10224000CC9328E3E335F20771F72091503830E062
:1022500080914F38880F880FA901F4E05595479574
:10226000FA95E1F74370840F80934C388091513890
:1022700090E0AC0155954795559547954F70B4E062
:10228000220F331FBA95E1F7240F20934D38C6E093
:10229000880F991FCA95E1F790915238890F809362
:1022A0004E3886E398E7A4E0B1E18093003890933C
:1022B0000138A0930238B0930338C0905538D090BD
:1022C0005638E0905738F0905838C114D104E104E2
:1022D000F10409F05CC08091003890910138A09120
:1022E0000238B0910338ECE4F8E3CCE5D8E34FE4EE
:1022F00058E3382F219128272993B695A7959795CC
:10230000879530FF08C02CE5822723ED92272CEB20
:10231000A22724EBB2274E175F0759F780930038A6
:1023200090930138A0930238B0930338DF91CF9196
:102330001F910F91FF90EF90DF90CF900895C82FDD
:102340007DCFEE2341F08CE5082783ED18278CEB39
:10235000282784EB38274F5F5F4F6F4F7F4FD9019E
:10236000C8018C019D013695279517950795E82F93
:10237000E170C416D506E606F70619F78093003813
:1023800090930138A0930238B0930338A4CF86E32A
:1023900098E7A4E0B1E140E050E0BA01E2CF1F923B
:1023A0000F920FB60F9211248F93EF93FF93E0E0FB
:1023B000F4E082E08683858380E88093C308FF9100
:1023C000EF918F910F900FBE0F901F9018951F9255
:1023D0000F920FB60F9211242F933F934F938F9329
:1023E0009F93EF93FF9380916D3890916E38019693
:1023F00080936D3890936E3880916B3890916C38E3
:10240000892B81F58091663890916738807F809321
:10241000493880916638909167388F7080934A3838
:102420008091493882958F7080934938E09149387E
:10243000F0E0E95CF74C8081806880934938E09156
:102440004A38F0E0E95CF74C808180934A3880910B
:10245000683881113EC0809149388093C40881E07A
:102460008093683880916B3890916C38019719F49B
:1024700080E88093C4089091080480914B38982795
:102480002091693880916A388227892380936A383D
:10249000209529232093693840914B3830914B384F
:1024A00082239423892B832780934B3880910804BF
:1024B00080934B3881E08093860AFF91EF919F9142
:1024C0008F914F913F912F910F900FBE0F901F90C2
:1024D000189580914A388093C40810926838C2CF0A
:1024E000F8941092800A1092810A85E09DE0809312
:1024F0008C0A90938D0A81E08093850A9091800ADE
:1025000091609093800A789434E0309321044DE6F2
:1025100055E0409308085093090890EC9093060802
:10252000F8948093E3059091410495609093410461
:1025300020E22093C0083093C1088093C20892E043
:1025400090930504909301043091C008316030935A
:10255000C0087894F8948093210490932104909378
:10256000000A33E33093010A44E650E04093260A20
:102570005093270A1092280A1092290A40932A0A97
:1025800050932B0A8093000A78948093000610924F
:1025900001062093020630E43093080620930906D2
:1025A00090930C0680930A0688E08093140480932D
:1025B00015048093160480931704EE24E39480E2BC
:1025C000F82EC4E6D0E001E010E0C0906B38D09067
:1025D0006C38C114D10461F181E0C816D104A9F7A7
:1025E0008091613890916238009709F48CC001970E
:1025F00061F70E945A108091353890913638892BB6
:1026000009F4D3C080916638909167380E94CB104E
:102610000E9465108091633886FFEBC080915F381F
:1026200090916038019680935F3890936038CDCF59
:10263000E0922204F0922504F092210480916B38FC
:1026400090916C38892B09F60E945A108091643859
:1026500090916538009781F08130910579F78093EA
:1026600035389093363880936B3890936C3810924D
:102670006D3810926E381CC0C093360AD093370A5A
:10268000C0933A0AD0933B0A8091633886FF15C005
:1026900080916638909167388F3F910549F080911D
:1026A00066389091673801968093663890936738C2
:1026B0001092643810926538C1CF85FF0CC08091AC
:1026C000663890916738892B99F38091663890919C
:1026D00067380197E9CF87FF05C0009364381093EE
:1026E0006538ACCF8091080484FDE2CF809110065C
:1026F00090911106A0911206B0911306809366384E
:10270000909367389BCF0E945A10809135389091F2
:102710003638892B51F18091633887FF05C0C0920C
:102720006138D092623851CF20916D3830916E3837
:1027300080913538909136382817390768F08091A4
:102740005F3890916038019680935F38909360383D
:1027500010926D3810926E3880916638909167387B
:102760000E94CB100E94651030CF80913538909137
:102770003638892B09F029CFC093360AD093370A0F
:10278000C0933A0AD0933B0A1092380A1092390A41
:1027900010925F381092603810926B3810926C383B
:1027A000109264381092653810CF8091353890912E
:1027B0003638892B09F02ECFC093360AD093370ACA
:1027C000C0933A0AD0933B0A1092380A1092390A01
:1027D00010925F381092603810926138109262380F
:1027E00010926B3810926C381092643810926538E1
:1027F00011CF85FF19C0C093360AD093370AC09312
:102800003A0AD0933B0A1092380A1092390A109271
:102810005F381092603810926138109262381092CE
:102820006B3810926C38D1CE87FFCFCE80915F3855
:1028300090916038019680935F3890936038109241
:1028400061381092623810926D3810926E38BDCE99
:10285000FB01DC0102C005900D9241505040D8F7B9
:1028600008950E94A51488F09F5798F0B92F9927D2
:10287000B751B0F0E1F0660F771F881F991F1AF06B
:10288000BA95C9F714C0B13091F00E94BF14B1E0FD
:1028900008950C94BF14672F782F8827B85F39F0FC
:1028A000B93FCCF3869577956795B395D9F73EF404
:1028B00090958095709561957F4F8F4F9F4F0895AC
:1028C000E89409C097FB3EF49095809570956195CA
:1028D0007F4F8F4F9F4F9923A9F0F92F96E9BB2780
:1028E0009395F695879577956795B795F111F8CFFC
:1028F000FAF4BB0F11F460FF1BC06F5F7F4F8F4F67
:102900009F4F16C0882311F096E911C0772321F05C
:102910009EE8872F762F05C0662371F096E8862FF4
:1029200070E060E02AF09A95660F771F881FDAF74B
:10293000880F9695879597F9089557FD9058440FFD
:10294000551F59F05F3F71F04795880F97FB991F0E
:1029500061F09F3F79F087950895121613061406CB
:10296000551FF2CF4695F1DF08C016161706180658
:10297000991FF1CF86957105610508940895E89433
:10298000BB2766277727CB0197F908950E94D914B2
:102990000C944A150E943C1538F00E94431520F013
:1029A000952311F00C9433150C94391511240C94C3
:1029B000C0140E949D1470F3959FC1F3950F50E0D1
:1029C000551F629FF001729FBB27F00DB11D639FE1
:1029D000AA27F00DB11DAA1F649F6627B00DA11D87
:1029E000661F829F2227B00DA11D621F739FB00D2D
:1029F000A11D621F839FA00D611D221F749F33279D
:102A0000A00D611D231F849F600D211D822F762F35
:102A10006A2F11249F5750409AF0F1F088234AF012
:102A2000EE0FFF1FBB1F661F771F881F915050407E
:102A3000A9F79E3F510580F00C9433150C94C014F7
:102A40005F3FE4F3983ED4F3869577956795B79505
:102A5000F795E7959F5FC1F7FE2B880F911D96951F
:102A6000879597F9089597F99F6780E870E060E08F
:102A700008959FEF80EC089500240A941616170617
:102A800018060906089500240A941216130614065F
:102A900005060895092E0394000C11F4882352F0C2
:102AA000BB0F40F4BF2B11F460FF04C06F5F7F4F7A
:102AB0008F4F9F4F0895A29FB001B39FC001A39F66
:102AC000700D811D1124911DB29F700D811D112467
:082AD000911D0895F894FFCF59
:102AD8004142434445464748494A4B4C4D4E4F5066
:102AE8005152535455565758595A61626364656632
:102AF8006768696A6B6C6D6E6F70717273747576E6
:102B08007778797A303132333435363738392B2F74
:102B180036780411BEEC000074DF0000EAD2000031
:102B280013C70000E7BB00005BB1000066A7000008
:102B3800019E000023950000C48C0000DD84000085
:102B4800687D0000FF0100086B44412311104B0011
:0C2B58000102301C601416777F8808FF13
:00000001FF
